{
  "contractName": "TransferAgreementContract",
  "abi": [
    {
      "anonymous": false,
      "inputs": [
        {
          "indexed": true,
          "internalType": "address",
          "name": "sender",
          "type": "address"
        },
        {
          "indexed": true,
          "internalType": "address",
          "name": "recipient",
          "type": "address"
        },
        {
          "indexed": true,
          "internalType": "string",
          "name": "slot_id",
          "type": "string"
        },
        {
          "indexed": false,
          "internalType": "uint256",
          "name": "money",
          "type": "uint256"
        }
      ],
      "name": "Transfer",
      "type": "event"
    },
    {
      "inputs": [
        {
          "internalType": "string",
          "name": "slot_id",
          "type": "string"
        },
        {
          "internalType": "address",
          "name": "recipient",
          "type": "address"
        }
      ],
      "name": "store_in_block",
      "outputs": [],
      "stateMutability": "payable",
      "type": "function",
      "payable": true
    },
    {
      "inputs": [
        {
          "internalType": "string",
          "name": "slot_id",
          "type": "string"
        }
      ],
      "name": "transfer_to_recipient",
      "outputs": [],
      "stateMutability": "nonpayable",
      "type": "function"
    },
    {
      "inputs": [
        {
          "internalType": "string",
          "name": "slot_id",
          "type": "string"
        }
      ],
      "name": "deny_transfer",
      "outputs": [],
      "stateMutability": "nonpayable",
      "type": "function"
    }
  ],
  "bytecode": "0x608060405234801561001057600080fd5b50610bcf806100206000396000f3fe6080604052600436106100345760003560e01c8063238b42e6146100395780637dc7d6f51461005557806388b48b071461007e575b600080fd5b610053600480360381019061004e9190610868565b6100a7565b005b34801561006157600080fd5b5061007c600480360381019061007791906108c4565b61025d565b005b34801561008a57600080fd5b506100a560048036038101906100a091906108c4565b6104ca565b005b600073ffffffffffffffffffffffffffffffffffffffff168173ffffffffffffffffffffffffffffffffffffffff1603610116576040517f08c379a000000000000000000000000000000000000000000000000000000000815260040161010d90610990565b60405180910390fd5b60003411610159576040517f08c379a000000000000000000000000000000000000000000000000000000000815260040161015090610a22565b60405180910390fd5b60405180606001604052803373ffffffffffffffffffffffffffffffffffffffff1681526020018273ffffffffffffffffffffffffffffffffffffffff168152602001348152506000836040516101b09190610abc565b908152602001604051809103902060008201518160000160006101000a81548173ffffffffffffffffffffffffffffffffffffffff021916908373ffffffffffffffffffffffffffffffffffffffff16021790555060208201518160010160006101000a81548173ffffffffffffffffffffffffffffffffffffffff021916908373ffffffffffffffffffffffffffffffffffffffff160217905550604082015181600201559050505050565b8060008160405161026e9190610abc565b908152602001604051809103902060000160009054906101000a900473ffffffffffffffffffffffffffffffffffffffff1673ffffffffffffffffffffffffffffffffffffffff163373ffffffffffffffffffffffffffffffffffffffff161461030d576040517f08c379a000000000000000000000000000000000000000000000000000000000815260040161030490610b45565b60405180910390fd5b6000808360405161031e9190610abc565b90815260200160405180910390206040518060600160405290816000820160009054906101000a900473ffffffffffffffffffffffffffffffffffffffff1673ffffffffffffffffffffffffffffffffffffffff1673ffffffffffffffffffffffffffffffffffffffff1681526020016001820160009054906101000a900473ffffffffffffffffffffffffffffffffffffffff1673ffffffffffffffffffffffffffffffffffffffff1673ffffffffffffffffffffffffffffffffffffffff1681526020016002820154815250509050806020015173ffffffffffffffffffffffffffffffffffffffff166108fc82604001519081150290604051600060405180830381858888f1935050505015801561043d573d6000803e3d6000fd5b508260405161044c9190610abc565b6040518091039020816020015173ffffffffffffffffffffffffffffffffffffffff16826000015173ffffffffffffffffffffffffffffffffffffffff167f1d30d3db8e01fa0d5626c471596f822f597e720c26a2930ef20d3387313c3d7884604001516040516104bd9190610b7e565b60405180910390a4505050565b806000816040516104db9190610abc565b908152602001604051809103902060000160009054906101000a900473ffffffffffffffffffffffffffffffffffffffff1673ffffffffffffffffffffffffffffffffffffffff163373ffffffffffffffffffffffffffffffffffffffff161461057a576040517f08c379a000000000000000000000000000000000000000000000000000000000815260040161057190610b45565b60405180910390fd5b6000808360405161058b9190610abc565b90815260200160405180910390206040518060600160405290816000820160009054906101000a900473ffffffffffffffffffffffffffffffffffffffff1673ffffffffffffffffffffffffffffffffffffffff1673ffffffffffffffffffffffffffffffffffffffff1681526020016001820160009054906101000a900473ffffffffffffffffffffffffffffffffffffffff1673ffffffffffffffffffffffffffffffffffffffff1673ffffffffffffffffffffffffffffffffffffffff1681526020016002820154815250509050806000015173ffffffffffffffffffffffffffffffffffffffff166108fc82604001519081150290604051600060405180830381858888f193505050501580156106aa573d6000803e3d6000fd5b50505050565b6000604051905090565b600080fd5b600080fd5b600080fd5b600080fd5b6000601f19601f8301169050919050565b7f4e487b7100000000000000000000000000000000000000000000000000000000600052604160045260246000fd5b610717826106ce565b810181811067ffffffffffffffff82111715610736576107356106df565b5b80604052505050565b60006107496106b0565b9050610755828261070e565b919050565b600067ffffffffffffffff821115610775576107746106df565b5b61077e826106ce565b9050602081019050919050565b82818337600083830152505050565b60006107ad6107a88461075a565b61073f565b9050828152602081018484840111156107c9576107c86106c9565b5b6107d484828561078b565b509392505050565b600082601f8301126107f1576107f06106c4565b5b813561080184826020860161079a565b91505092915050565b600073ffffffffffffffffffffffffffffffffffffffff82169050919050565b60006108358261080a565b9050919050565b6108458161082a565b811461085057600080fd5b50565b6000813590506108628161083c565b92915050565b6000806040838503121561087f5761087e6106ba565b5b600083013567ffffffffffffffff81111561089d5761089c6106bf565b5b6108a9858286016107dc565b92505060206108ba85828601610853565b9150509250929050565b6000602082840312156108da576108d96106ba565b5b600082013567ffffffffffffffff8111156108f8576108f76106bf565b5b610904848285016107dc565b91505092915050565b600082825260208201905092915050565b7f526563697069656e742773206164647265737320646f6573206e6f742065786960008201527f7374000000000000000000000000000000000000000000000000000000000000602082015250565b600061097a60228361090d565b91506109858261091e565b604082019050919050565b600060208201905081810360008301526109a98161096d565b9050919050565b7f416d6f756e74206f66206574686572206d75737420626520677265617465722060008201527f7468616e20300000000000000000000000000000000000000000000000000000602082015250565b6000610a0c60268361090d565b9150610a17826109b0565b604082019050919050565b60006020820190508181036000830152610a3b816109ff565b9050919050565b600081519050919050565b600081905092915050565b60005b83811015610a76578082015181840152602081019050610a5b565b83811115610a85576000848401525b50505050565b6000610a9682610a42565b610aa08185610a4d565b9350610ab0818560208601610a58565b80840191505092915050565b6000610ac88284610a8b565b915081905092915050565b7f4f6e6c79207468652073656e64657220686173207065726d697373696f6e207460008201527f6f207472616e7366657200000000000000000000000000000000000000000000602082015250565b6000610b2f602a8361090d565b9150610b3a82610ad3565b604082019050919050565b60006020820190508181036000830152610b5e81610b22565b9050919050565b6000819050919050565b610b7881610b65565b82525050565b6000602082019050610b936000830184610b6f565b9291505056fea26469706673582212202369067571a938f1e9cf3662b7babd6ebbd048914f95d1b57c31352a7921e54464736f6c634300080d0033",
  "immutableReferences": {},
  "source": "// SPDX-License-Identifier: MIT\npragma solidity >=0.4.22 <0.9.0;\n\ncontract TransferAgreementContract {\n    mapping(string => Slot) private slots;\n    \n    struct Slot {\n        address sender;\n        address recipient;\n        uint money;\n    }\n\n    modifier is_sender(string memory slot_id) {\n        require(msg.sender == slots[slot_id].sender, \"Only the sender has permission to transfer\");\n        _;\n    }\n\n    event Transfer(address indexed sender, address indexed recipient, string indexed slot_id, uint money);\n\n    function store_in_block(string memory slot_id, address recipient) public payable {\n        require(recipient != address(0), \"Recipient's address does not exist\");\n        require(msg.value > 0, \"Amount of ether must be greater than 0\");\n        slots[slot_id] = Slot(msg.sender, recipient, msg.value);\n    }\n\n    function transfer_to_recipient(string memory slot_id) public is_sender(slot_id) {\n        Slot memory slot = slots[slot_id];\n        payable(slot.recipient).transfer(slot.money);\n        emit Transfer(slot.sender, slot.recipient, slot_id, slot.money);\n    }\n    function deny_transfer(string memory slot_id) public is_sender(slot_id) {\n        Slot memory slot = slots[slot_id];\n        payable(slot.sender).transfer(slot.money);\n    }\n}",
  "sourcePath": "C:\\Users\\ASUS\\Desktop\\Cryptocurrency transfer service\\ethereum_contracts\\contracts\\TransferAgreementContract.sol",
  "compiler": {
    "name": "solc",
    "version": "0.8.13+commit.abaa5c0e.Emscripten.clang"
  },
  "schemaVersion": "3.4.6",
  "updatedAt": "2022-04-16T06:58:12.737Z",
  "networkType": "ethereum",
  "devdoc": {
    "kind": "dev",
    "methods": {},
    "version": 1
  },
  "userdoc": {
    "kind": "user",
    "methods": {},
    "version": 1
  }
}