{
    "contractName": "TransferAgreementContract",
    "abi": [
        {
            "anonymous": false,
            "inputs": [
                {
                    "indexed": true,
                    "internalType": "address",
                    "name": "sender",
                    "type": "address"
                },
                {
                    "indexed": true,
                    "internalType": "address",
                    "name": "recipient",
                    "type": "address"
                },
                {
                    "indexed": true,
                    "internalType": "string",
                    "name": "slot_id",
                    "type": "string"
                },
                {
                    "indexed": false,
                    "internalType": "uint256",
                    "name": "money",
                    "type": "uint256"
                }
            ],
            "name": "Transfer",
            "type": "event"
        },
        {
            "inputs": [
                {
                    "internalType": "string",
                    "name": "slot_id",
                    "type": "string"
                }
            ],
            "name": "deny_transfer",
            "outputs": [],
            "stateMutability": "nonpayable",
            "type": "function"
        },
        {
            "inputs": [
                {
                    "internalType": "string",
                    "name": "slot_id",
                    "type": "string"
                },
                {
                    "internalType": "address",
                    "name": "recipient",
                    "type": "address"
                }
            ],
            "name": "store_in_block",
            "outputs": [],
            "stateMutability": "payable",
            "type": "function"
        },
        {
            "inputs": [
                {
                    "internalType": "string",
                    "name": "slot_id",
                    "type": "string"
                }
            ],
            "name": "transfer_to_recipient",
            "outputs": [],
            "stateMutability": "nonpayable",
            "type": "function"
        }
    ],
    "bytecode": "608060405234801561001057600080fd5b50610620806100206000396000f3fe6080604052600436106100345760003560e01c8063238b42e6146100395780637dc7d6f51461004e57806388b48b071461006e575b600080fd5b61004c6100473660046104ca565b61008e565b005b34801561005a57600080fd5b5061004c610069366004610528565b6101d5565b34801561007a57600080fd5b5061004c610089366004610528565b61034f565b6001600160a01b0381166100f45760405162461bcd60e51b815260206004820152602260248201527f526563697069656e742773206164647265737320646f6573206e6f74206578696044820152611cdd60f21b60648201526084015b60405180910390fd5b600034116101535760405162461bcd60e51b815260206004820152602660248201527f416d6f756e74206f66206574686572206d75737420626520677265617465722060448201526507468616e20360d41b60648201526084016100eb565b604080516060810182523381526001600160a01b038316602082015234818301529051600090610184908590610565565b9081526040805160209281900383019020835181546001600160a01b03199081166001600160a01b039283161783559385015160018301805490951691161790925591909101516002909101555050565b806000816040516101e69190610565565b90815260405190819003602001902054336001600160a01b039091161461021f5760405162461bcd60e51b81526004016100eb906105a0565b600080836040516102309190610565565b908152604080516020928190038301812060608201835280546001600160a01b0390811683526001820154169382018490526002015481830181905291519093506108fc82150291906000818181858888f19350505050158015610298573d6000803e3d6000fd5b50826040516102a79190610565565b604051809103902081602001516001600160a01b031682600001516001600160a01b03167f1d30d3db8e01fa0d5626c471596f822f597e720c26a2930ef20d3387313c3d78846040015160405161030091815260200190565b60405180910390a46000836040516103189190610565565b90815260405190819003602001902080546001600160a01b0319908116825560018201805490911690556000600290910155505050565b806000816040516103609190610565565b90815260405190819003602001902054336001600160a01b03909116146103995760405162461bcd60e51b81526004016100eb906105a0565b600080836040516103aa9190610565565b908152604080516020928190038301812060608201835280546001600160a01b039081168084526001830154909116948301949094526002015481830181905291519093506108fc82150291906000818181858888f19350505050158015610416573d6000803e3d6000fd5b506000836040516103189190610565565b634e487b7160e01b600052604160045260246000fd5b600082601f83011261044e57600080fd5b813567ffffffffffffffff8082111561046957610469610427565b604051601f8301601f19908116603f0116810190828211818310171561049157610491610427565b816040528381528660208588010111156104aa57600080fd5b836020870160208301376000602085830101528094505050505092915050565b600080604083850312156104dd57600080fd5b823567ffffffffffffffff8111156104f457600080fd5b6105008582860161043d565b92505060208301356001600160a01b038116811461051d57600080fd5b809150509250929050565b60006020828403121561053a57600080fd5b813567ffffffffffffffff81111561055157600080fd5b61055d8482850161043d565b949350505050565b6000825160005b81811015610586576020818601810151858301520161056c565b81811115610595576000828501525b509190910192915050565b6020808252602a908201527f4f6e6c79207468652073656e64657220686173207065726d697373696f6e207460408201526937903a3930b739b332b960b11b60608201526080019056fea26469706673582212203694fac2b39d10fbe82ab108ce436c594e0dbb96d9e8cd01bd9e931ba709ece464736f6c634300080d0033",
    "sourcePath": "c:/Users/ASUS/Desktop/Cryptocurrency transfer service/ethereum_contracts/contracts/TransferAgreementContract.sol",
    "compiler": {
        "name": "solc",
        "version": "0.8.13+commit.abaa5c0e"
    },
    "functionHashes": {
        "deny_transfer(string)": "88b48b07",
        "store_in_block(string,address)": "238b42e6",
        "transfer_to_recipient(string)": "7dc7d6f5"
    },
    "gasEstimates": {
        "creation": {
            "codeDepositCost": "313600",
            "executionCost": "349",
            "totalCost": "313949"
        },
        "external": {
            "deny_transfer(string)": "infinite",
            "store_in_block(string,address)": "infinite",
            "transfer_to_recipient(string)": "infinite"
        }
    }
}