{
  "contractName": "ERC20TransferContract",
  "abi": [
    {
      "inputs": [
        {
          "internalType": "contract StandardERC20",
          "name": "token_",
          "type": "address"
        }
      ],
      "stateMutability": "nonpayable",
      "type": "constructor"
    },
    {
      "inputs": [
        {
          "internalType": "address",
          "name": "recipient",
          "type": "address"
        },
        {
          "internalType": "uint256",
          "name": "amount",
          "type": "uint256"
        }
      ],
      "name": "block_sum",
      "outputs": [],
      "stateMutability": "nonpayable",
      "type": "function"
    },
    {
      "inputs": [
        {
          "internalType": "address",
          "name": "recipient",
          "type": "address"
        }
      ],
      "name": "final_transfer",
      "outputs": [],
      "stateMutability": "nonpayable",
      "type": "function"
    },
    {
      "inputs": [
        {
          "internalType": "address",
          "name": "recipient",
          "type": "address"
        }
      ],
      "name": "revert_transfer",
      "outputs": [],
      "stateMutability": "nonpayable",
      "type": "function"
    }
  ],
  "bytecode": "0x608060405234801561001057600080fd5b50604051610c21380380610c21833981810160405281019061003291906100ed565b806000806101000a81548173ffffffffffffffffffffffffffffffffffffffff021916908373ffffffffffffffffffffffffffffffffffffffff1602179055505061011a565b600080fd5b600073ffffffffffffffffffffffffffffffffffffffff82169050919050565b60006100a88261007d565b9050919050565b60006100ba8261009d565b9050919050565b6100ca816100af565b81146100d557600080fd5b50565b6000815190506100e7816100c1565b92915050565b60006020828403121561010357610102610078565b5b6000610111848285016100d8565b91505092915050565b610af8806101296000396000f3fe608060405234801561001057600080fd5b50600436106100415760003560e01c8063366b6625146100465780638fc1a4c014610062578063c903777a1461007e575b600080fd5b610060600480360381019061005b919061079c565b61009a565b005b61007c6004803603810190610077919061079c565b610321565b005b610098600480360381019061009391906107ff565b6105a6565b005b8060008060009054906101000a900473ffffffffffffffffffffffffffffffffffffffff1673ffffffffffffffffffffffffffffffffffffffff1663dd62ed3e30846040518363ffffffff1660e01b81526004016100f992919061084e565b602060405180830381865afa158015610116573d6000803e3d6000fd5b505050506040513d601f19601f8201168201806040525081019061013a919061088c565b1161017a576040517f08c379a00000000000000000000000000000000000000000000000000000000081526004016101719061093c565b60405180910390fd5b6000600160003373ffffffffffffffffffffffffffffffffffffffff1673ffffffffffffffffffffffffffffffffffffffff16815260200190815260200160002060008473ffffffffffffffffffffffffffffffffffffffff1673ffffffffffffffffffffffffffffffffffffffff16815260200190815260200160002054905060008054906101000a900473ffffffffffffffffffffffffffffffffffffffff1673ffffffffffffffffffffffffffffffffffffffff166323b872dd3385846040518463ffffffff1660e01b81526004016102589392919061096b565b6020604051808303816000875af1158015610277573d6000803e3d6000fd5b505050506040513d601f19601f8201168201806040525081019061029b91906109da565b50600160003373ffffffffffffffffffffffffffffffffffffffff1673ffffffffffffffffffffffffffffffffffffffff16815260200190815260200160002060008473ffffffffffffffffffffffffffffffffffffffff1673ffffffffffffffffffffffffffffffffffffffff16815260200190815260200160002060009055505050565b8060008060009054906101000a900473ffffffffffffffffffffffffffffffffffffffff1673ffffffffffffffffffffffffffffffffffffffff1663dd62ed3e30846040518363ffffffff1660e01b815260040161038092919061084e565b602060405180830381865afa15801561039d573d6000803e3d6000fd5b505050506040513d601f19601f820116820180604052508101906103c1919061088c565b11610401576040517f08c379a00000000000000000000000000000000000000000000000000000000081526004016103f89061093c565b60405180910390fd5b6000600160003373ffffffffffffffffffffffffffffffffffffffff1673ffffffffffffffffffffffffffffffffffffffff16815260200190815260200160002060008473ffffffffffffffffffffffffffffffffffffffff1673ffffffffffffffffffffffffffffffffffffffff16815260200190815260200160002054905060008054906101000a900473ffffffffffffffffffffffffffffffffffffffff1673ffffffffffffffffffffffffffffffffffffffff1663a457c2d784836040518363ffffffff1660e01b81526004016104dd929190610a07565b6020604051808303816000875af11580156104fc573d6000803e3d6000fd5b505050506040513d601f19601f8201168201806040525081019061052091906109da565b50600160003373ffffffffffffffffffffffffffffffffffffffff1673ffffffffffffffffffffffffffffffffffffffff16815260200190815260200160002060008473ffffffffffffffffffffffffffffffffffffffff1673ffffffffffffffffffffffffffffffffffffffff16815260200190815260200160002060009055505050565b600073ffffffffffffffffffffffffffffffffffffffff168273ffffffffffffffffffffffffffffffffffffffff1603610615576040517f08c379a000000000000000000000000000000000000000000000000000000000815260040161060c90610aa2565b60405180910390fd5b80600160003373ffffffffffffffffffffffffffffffffffffffff1673ffffffffffffffffffffffffffffffffffffffff16815260200190815260200160002060008473ffffffffffffffffffffffffffffffffffffffff1673ffffffffffffffffffffffffffffffffffffffff1681526020019081526020016000208190555060008054906101000a900473ffffffffffffffffffffffffffffffffffffffff1673ffffffffffffffffffffffffffffffffffffffff1663095ea7b383836040518363ffffffff1660e01b81526004016106f1929190610a07565b6020604051808303816000875af1158015610710573d6000803e3d6000fd5b505050506040513d601f19601f8201168201806040525081019061073491906109da565b505050565b600080fd5b600073ffffffffffffffffffffffffffffffffffffffff82169050919050565b60006107698261073e565b9050919050565b6107798161075e565b811461078457600080fd5b50565b60008135905061079681610770565b92915050565b6000602082840312156107b2576107b1610739565b5b60006107c084828501610787565b91505092915050565b6000819050919050565b6107dc816107c9565b81146107e757600080fd5b50565b6000813590506107f9816107d3565b92915050565b6000806040838503121561081657610815610739565b5b600061082485828601610787565b9250506020610835858286016107ea565b9150509250929050565b6108488161075e565b82525050565b6000604082019050610863600083018561083f565b610870602083018461083f565b9392505050565b600081519050610886816107d3565b92915050565b6000602082840312156108a2576108a1610739565b5b60006108b084828501610877565b91505092915050565b600082825260208201905092915050565b7f4f6e6c79207468652073656e64657220686173207065726d697373696f6e207460008201527f6f207472616e7366657200000000000000000000000000000000000000000000602082015250565b6000610926602a836108b9565b9150610931826108ca565b604082019050919050565b6000602082019050818103600083015261095581610919565b9050919050565b610965816107c9565b82525050565b6000606082019050610980600083018661083f565b61098d602083018561083f565b61099a604083018461095c565b949350505050565b60008115159050919050565b6109b7816109a2565b81146109c257600080fd5b50565b6000815190506109d4816109ae565b92915050565b6000602082840312156109f0576109ef610739565b5b60006109fe848285016109c5565b91505092915050565b6000604082019050610a1c600083018561083f565b610a29602083018461095c565b9392505050565b7f526563697069656e742773206164647265737320646f6573206e6f742065786960008201527f7374000000000000000000000000000000000000000000000000000000000000602082015250565b6000610a8c6022836108b9565b9150610a9782610a30565b604082019050919050565b60006020820190508181036000830152610abb81610a7f565b905091905056fea264697066735822122079bffdc4fa52676c8f3b9f2d175770e9b0c96784055b190bc82be9352352732364736f6c634300080d0033",
  "immutableReferences": {},
  "source": "// SPDX-License-Identifier: MIT\r\npragma solidity ^0.8.0;\r\nimport \"./StandardERC20.sol\";\r\ncontract ERC20TransferContract {\r\n    StandardERC20 private token;\r\n    mapping(address => mapping(address => uint)) private transactions;\r\n    constructor(StandardERC20 token_) public {\r\n        token = token_;\r\n    }\r\n    modifier is_sender(address recipient) {\r\n        require(token.allowance(address(this), recipient) > 0, \"Only the sender has permission to transfer\");\r\n        _;\r\n    }\r\n    //allow recipient to take from contract\r\n    //allow contract to take from owner\r\n    function block_sum(address recipient, uint amount) external {\r\n        require(recipient != address(0), \"Recipient's address does not exist\");\r\n        transactions[msg.sender][recipient] = amount;\r\n        token.approve(recipient, amount);\r\n    }\r\n\r\n    function final_transfer(address recipient) external is_sender(recipient) {\r\n        uint value = transactions[msg.sender][recipient];\r\n        token.transferFrom(msg.sender, recipient, value);\r\n        delete transactions[msg.sender][recipient];\r\n    }\r\n\r\n    function revert_transfer(address recipient) external is_sender(recipient) {\r\n        uint value = transactions[msg.sender][recipient];\r\n        token.decreaseAllowance(recipient, value);\r\n        delete transactions[msg.sender][recipient];\r\n    }\r\n}",
  "sourcePath": "C:\\Users\\ASUS\\Desktop\\Cryptocurrency transfer service\\smart_contracts\\contracts\\ERC20TransferContract.sol",
  "compiler": {
    "name": "solc",
    "version": "0.8.13+commit.abaa5c0e.Emscripten.clang"
  },
  "schemaVersion": "3.4.6",
  "updatedAt": "2022-05-07T08:32:07.041Z",
  "networkType": "ethereum",
  "devdoc": {
    "kind": "dev",
    "methods": {},
    "version": 1
  },
  "userdoc": {
    "kind": "user",
    "methods": {},
    "version": 1
  }
}