{
  "contractName": "EthereumTransferContract",
  "abi": [
    {
      "anonymous": false,
      "inputs": [
        {
          "indexed": true,
          "internalType": "address",
          "name": "sender",
          "type": "address"
        },
        {
          "indexed": true,
          "internalType": "address",
          "name": "recipient",
          "type": "address"
        },
        {
          "indexed": false,
          "internalType": "uint256",
          "name": "amount",
          "type": "uint256"
        }
      ],
      "name": "Blocked",
      "type": "event"
    },
    {
      "anonymous": false,
      "inputs": [
        {
          "indexed": true,
          "internalType": "address",
          "name": "sender",
          "type": "address"
        },
        {
          "indexed": true,
          "internalType": "address",
          "name": "recipient",
          "type": "address"
        },
        {
          "indexed": false,
          "internalType": "uint256",
          "name": "amount",
          "type": "uint256"
        }
      ],
      "name": "Reverted",
      "type": "event"
    },
    {
      "anonymous": false,
      "inputs": [
        {
          "indexed": true,
          "internalType": "address",
          "name": "sender",
          "type": "address"
        },
        {
          "indexed": true,
          "internalType": "address",
          "name": "recipient",
          "type": "address"
        },
        {
          "indexed": false,
          "internalType": "uint256",
          "name": "amount",
          "type": "uint256"
        }
      ],
      "name": "Transfered",
      "type": "event"
    },
    {
      "inputs": [
        {
          "internalType": "address",
          "name": "recipient",
          "type": "address"
        }
      ],
      "name": "block_sum",
      "outputs": [],
      "stateMutability": "payable",
      "type": "function",
      "payable": true
    },
    {
      "inputs": [
        {
          "internalType": "address",
          "name": "recipient",
          "type": "address"
        }
      ],
      "name": "final_transfer",
      "outputs": [],
      "stateMutability": "nonpayable",
      "type": "function"
    },
    {
      "inputs": [
        {
          "internalType": "address",
          "name": "recipient",
          "type": "address"
        }
      ],
      "name": "revert_transfer",
      "outputs": [],
      "stateMutability": "nonpayable",
      "type": "function"
    }
  ],
  "bytecode": "0x608060405234801561001057600080fd5b50610994806100206000396000f3fe6080604052600436106100345760003560e01c8063366b66251461003957806381349d9a146100625780638fc1a4c01461007e575b600080fd5b34801561004557600080fd5b50610060600480360381019061005b9190610782565b6100a7565b005b61007c60048036038101906100779190610782565b610316565b005b34801561008a57600080fd5b506100a560048036038101906100a09190610782565b6104b0565b005b8060008060003373ffffffffffffffffffffffffffffffffffffffff1673ffffffffffffffffffffffffffffffffffffffff16815260200190815260200160002060008373ffffffffffffffffffffffffffffffffffffffff1673ffffffffffffffffffffffffffffffffffffffff1681526020019081526020016000205411610166576040517f08c379a000000000000000000000000000000000000000000000000000000000815260040161015d9061080c565b60405180910390fd5b60008060003373ffffffffffffffffffffffffffffffffffffffff1673ffffffffffffffffffffffffffffffffffffffff16815260200190815260200160002060008473ffffffffffffffffffffffffffffffffffffffff1673ffffffffffffffffffffffffffffffffffffffff1681526020019081526020016000205490508273ffffffffffffffffffffffffffffffffffffffff166108fc829081150290604051600060405180830381858888f1935050505015801561022c573d6000803e3d6000fd5b506000803373ffffffffffffffffffffffffffffffffffffffff1673ffffffffffffffffffffffffffffffffffffffff16815260200190815260200160002060008473ffffffffffffffffffffffffffffffffffffffff1673ffffffffffffffffffffffffffffffffffffffff168152602001908152602001600020600090558273ffffffffffffffffffffffffffffffffffffffff163373ffffffffffffffffffffffffffffffffffffffff167f8930ac7bcb101f94c05b13845098ae74383bfb9e348e73061b730040945cbb82836040516103099190610845565b60405180910390a3505050565b600073ffffffffffffffffffffffffffffffffffffffff168173ffffffffffffffffffffffffffffffffffffffff1603610385576040517f08c379a000000000000000000000000000000000000000000000000000000000815260040161037c906108ac565b60405180910390fd5b600034116103c8576040517f08c379a00000000000000000000000000000000000000000000000000000000081526004016103bf9061093e565b60405180910390fd5b346000803373ffffffffffffffffffffffffffffffffffffffff1673ffffffffffffffffffffffffffffffffffffffff16815260200190815260200160002060008373ffffffffffffffffffffffffffffffffffffffff1673ffffffffffffffffffffffffffffffffffffffff168152602001908152602001600020819055508073ffffffffffffffffffffffffffffffffffffffff163373ffffffffffffffffffffffffffffffffffffffff167ff4d61bf10cd7634ffb91cebcbd1828d9b0debaec1f35f00fac329be576fa795d346040516104a59190610845565b60405180910390a350565b8060008060003373ffffffffffffffffffffffffffffffffffffffff1673ffffffffffffffffffffffffffffffffffffffff16815260200190815260200160002060008373ffffffffffffffffffffffffffffffffffffffff1673ffffffffffffffffffffffffffffffffffffffff168152602001908152602001600020541161056f576040517f08c379a00000000000000000000000000000000000000000000000000000000081526004016105669061080c565b60405180910390fd5b60008060003373ffffffffffffffffffffffffffffffffffffffff1673ffffffffffffffffffffffffffffffffffffffff16815260200190815260200160002060008473ffffffffffffffffffffffffffffffffffffffff1673ffffffffffffffffffffffffffffffffffffffff1681526020019081526020016000205490503373ffffffffffffffffffffffffffffffffffffffff166108fc829081150290604051600060405180830381858888f19350505050158015610635573d6000803e3d6000fd5b506000803373ffffffffffffffffffffffffffffffffffffffff1673ffffffffffffffffffffffffffffffffffffffff16815260200190815260200160002060008473ffffffffffffffffffffffffffffffffffffffff1673ffffffffffffffffffffffffffffffffffffffff168152602001908152602001600020600090558273ffffffffffffffffffffffffffffffffffffffff163373ffffffffffffffffffffffffffffffffffffffff167f30f49837c25b6071cbf15f0aae7956c50aca32d0337952975656645ffccec121836040516107129190610845565b60405180910390a3505050565b600080fd5b600073ffffffffffffffffffffffffffffffffffffffff82169050919050565b600061074f82610724565b9050919050565b61075f81610744565b811461076a57600080fd5b50565b60008135905061077c81610756565b92915050565b6000602082840312156107985761079761071f565b5b60006107a68482850161076d565b91505092915050565b600082825260208201905092915050565b7f546865207061796d656e74206973206e6f7420696e20626c6f636b0000000000600082015250565b60006107f6601b836107af565b9150610801826107c0565b602082019050919050565b60006020820190508181036000830152610825816107e9565b9050919050565b6000819050919050565b61083f8161082c565b82525050565b600060208201905061085a6000830184610836565b92915050565b7f526563697069656e742773206164647265737320697320696e76616c69640000600082015250565b6000610896601e836107af565b91506108a182610860565b602082019050919050565b600060208201905081810360008301526108c581610889565b9050919050565b7f416d6f756e74206f66206574686572206d75737420626520677265617465722060008201527f7468616e20300000000000000000000000000000000000000000000000000000602082015250565b60006109286026836107af565b9150610933826108cc565b604082019050919050565b600060208201905081810360008301526109578161091b565b905091905056fea2646970667358221220a75dd172a96443654b8fff4914014b5ec591bfee7095bbd3a2faa51c84ed72dd64736f6c634300080d0033",
  "immutableReferences": {},
  "source": "// SPDX-License-Identifier: MIT\npragma solidity >=0.4.22 < 0.9.0;\n\ncontract EthereumTransferContract {\n    mapping(address => mapping(address => uint)) slots;\n\n    modifier is_sumInBlock(address recipient) {\n        require(slots[msg.sender][recipient] > 0, \"The payment is not in block\");\n        _;\n    }\n    event Transfered(address indexed sender, address indexed recipient, uint amount);\n    event Blocked(address indexed sender, address indexed recipient, uint amount);\n    event Reverted(address indexed sender, address indexed recipient, uint amount);\n\n    function block_sum(address recipient) public payable {\n        require(recipient != address(0), \"Recipient's address is invalid\");\n        require(msg.value > 0, \"Amount of ether must be greater than 0\");\n        slots[msg.sender][recipient] = msg.value;\n        emit Blocked(msg.sender, recipient, msg.value);\n    }\n\n    function final_transfer(address recipient) public is_sumInBlock(recipient) {\n        uint amount = slots[msg.sender][recipient];\n        payable(recipient).transfer(amount);\n        delete slots[msg.sender][recipient];\n        emit Transfered(msg.sender, recipient, amount);\n    }\n    function revert_transfer(address recipient) public is_sumInBlock(recipient) {\n        uint amount = slots[msg.sender][recipient];\n        payable(msg.sender).transfer(amount);\n        delete slots[msg.sender][recipient];\n        emit Reverted(msg.sender, recipient, amount);\n    }\n}",
  "sourcePath": "C:\\Users\\ASUS\\Desktop\\Cryptocurrency transfer service\\smart_contracts\\contracts\\EthereumTransferContract.sol",
  "compiler": {
    "name": "solc",
    "version": "0.8.13+commit.abaa5c0e.Emscripten.clang"
  },
  "schemaVersion": "3.4.6",
  "updatedAt": "2022-05-07T08:32:04.541Z",
  "networkType": "ethereum",
  "devdoc": {
    "kind": "dev",
    "methods": {},
    "version": 1
  },
  "userdoc": {
    "kind": "user",
    "methods": {},
    "version": 1
  }
}